{
  "_format": "hh-sol-artifact-1",
  "contractName": "WavePortal",
  "sourceName": "contracts/WavePortal.sol",
  "abi": [
    {
      "anonymous": false,
      "inputs": [
        {
          "indexed": true,
          "internalType": "address",
          "name": "from",
          "type": "address"
        },
        {
          "indexed": false,
          "internalType": "uint256",
          "name": "timestamp",
          "type": "uint256"
        },
        {
          "indexed": false,
          "internalType": "string",
          "name": "message",
          "type": "string"
        }
      ],
      "name": "newWave",
      "type": "event"
    },
    {
      "inputs": [],
      "name": "getAllWaves",
      "outputs": [
        {
          "components": [
            {
              "internalType": "address",
              "name": "waver",
              "type": "address"
            },
            {
              "internalType": "string",
              "name": "message",
              "type": "string"
            },
            {
              "internalType": "uint256",
              "name": "timestamp",
              "type": "uint256"
            }
          ],
          "internalType": "struct WavePortal.Wave[]",
          "name": "",
          "type": "tuple[]"
        }
      ],
      "stateMutability": "view",
      "type": "function"
    },
    {
      "inputs": [
        {
          "internalType": "address",
          "name": "sender",
          "type": "address"
        }
      ],
      "name": "getSenderTotalWaves",
      "outputs": [
        {
          "internalType": "uint256",
          "name": "",
          "type": "uint256"
        }
      ],
      "stateMutability": "view",
      "type": "function"
    },
    {
      "inputs": [],
      "name": "getTotalWaves",
      "outputs": [
        {
          "internalType": "uint256",
          "name": "",
          "type": "uint256"
        }
      ],
      "stateMutability": "view",
      "type": "function"
    },
    {
      "inputs": [
        {
          "internalType": "string",
          "name": "_message",
          "type": "string"
        }
      ],
      "name": "wave",
      "outputs": [],
      "stateMutability": "nonpayable",
      "type": "function"
    }
  ],
  "bytecode": "0x608060405234801561001057600080fd5b50610be2806100206000396000f3fe608060405234801561001057600080fd5b506004361061004c5760003560e01c8063449d46c0146100515780639a2cdc081461006d578063bd43a9081461008b578063fd866e8c146100a9575b600080fd5b61006b60048036038101906100669190610656565b6100d9565b005b6100756102a5565b6040516100829190610870565b60405180910390f35b6100936102ae565b6040516100a0919061081e565b60405180910390f35b6100c360048036038101906100be919061062d565b6103ff565b6040516100d09190610870565b60405180910390f35b60016000808282546100eb9190610977565b92505081905550600260003373ffffffffffffffffffffffffffffffffffffffff1673ffffffffffffffffffffffffffffffffffffffff168152602001908152602001600020600081548092919061014290610aae565b91905055506101866040518060400160405280600c81526020017f257320686173207761766564000000000000000000000000000000000000000081525033610448565b600160405180606001604052803373ffffffffffffffffffffffffffffffffffffffff16815260200183815260200142815250908060018154018082558091505060019003906000526020600020906003020160009091909190915060008201518160000160006101000a81548173ffffffffffffffffffffffffffffffffffffffff021916908373ffffffffffffffffffffffffffffffffffffffff160217905550602082015181600101908051906020019061024592919061050d565b506040820151816002015550503373ffffffffffffffffffffffffffffffffffffffff167f827fc0b1433d32e3710239670a4c525416496a64d64f2374a5e4ea595c0738c6428360405161029a92919061088b565b60405180910390a250565b60008054905090565b60606001805480602002602001604051908101604052809291908181526020016000905b828210156103f657838290600052602060002090600302016040518060600160405290816000820160009054906101000a900473ffffffffffffffffffffffffffffffffffffffff1673ffffffffffffffffffffffffffffffffffffffff1673ffffffffffffffffffffffffffffffffffffffff16815260200160018201805461035b90610a4b565b80601f016020809104026020016040519081016040528092919081815260200182805461038790610a4b565b80156103d45780601f106103a9576101008083540402835291602001916103d4565b820191906000526020600020905b8154815290600101906020018083116103b757829003601f168201915b50505050508152602001600282015481525050815260200190600101906102d2565b50505050905090565b6000600260008373ffffffffffffffffffffffffffffffffffffffff1673ffffffffffffffffffffffffffffffffffffffff168152602001908152602001600020549050919050565b6104e0828260405160240161045e929190610840565b6040516020818303038152906040527f319af333000000000000000000000000000000000000000000000000000000007bffffffffffffffffffffffffffffffffffffffffffffffffffffffff19166020820180517bffffffffffffffffffffffffffffffffffffffffffffffffffffffff83818316178352505050506104e4565b5050565b60008151905060006a636f6e736f6c652e6c6f679050602083016000808483855afa5050505050565b82805461051990610a4b565b90600052602060002090601f01602090048101928261053b5760008555610582565b82601f1061055457805160ff1916838001178555610582565b82800160010185558215610582579182015b82811115610581578251825591602001919060010190610566565b5b50905061058f9190610593565b5090565b5b808211156105ac576000816000905550600101610594565b5090565b60006105c36105be846108e0565b6108bb565b9050828152602081018484840111156105db57600080fd5b6105e6848285610a09565b509392505050565b6000813590506105fd81610b95565b92915050565b600082601f83011261061457600080fd5b81356106248482602086016105b0565b91505092915050565b60006020828403121561063f57600080fd5b600061064d848285016105ee565b91505092915050565b60006020828403121561066857600080fd5b600082013567ffffffffffffffff81111561068257600080fd5b61068e84828501610603565b91505092915050565b60006106a383836107b0565b905092915050565b6106b4816109cd565b82525050565b6106c3816109cd565b82525050565b60006106d482610921565b6106de8185610944565b9350836020820285016106f085610911565b8060005b8581101561072c578484038952815161070d8582610697565b945061071883610937565b925060208a019950506001810190506106f4565b50829750879550505050505092915050565b60006107498261092c565b6107538185610955565b9350610763818560208601610a18565b61076c81610b84565b840191505092915050565b60006107828261092c565b61078c8185610966565b935061079c818560208601610a18565b6107a581610b84565b840191505092915050565b60006060830160008301516107c860008601826106ab565b50602083015184820360208601526107e0828261073e565b91505060408301516107f56040860182610800565b508091505092915050565b610809816109ff565b82525050565b610818816109ff565b82525050565b6000602082019050818103600083015261083881846106c9565b905092915050565b6000604082019050818103600083015261085a8185610777565b905061086960208301846106ba565b9392505050565b6000602082019050610885600083018461080f565b92915050565b60006040820190506108a0600083018561080f565b81810360208301526108b28184610777565b90509392505050565b60006108c56108d6565b90506108d18282610a7d565b919050565b6000604051905090565b600067ffffffffffffffff8211156108fb576108fa610b55565b5b61090482610b84565b9050602081019050919050565b6000819050602082019050919050565b600081519050919050565b600081519050919050565b6000602082019050919050565b600082825260208201905092915050565b600082825260208201905092915050565b600082825260208201905092915050565b6000610982826109ff565b915061098d836109ff565b9250827fffffffffffffffffffffffffffffffffffffffffffffffffffffffffffffffff038211156109c2576109c1610af7565b5b828201905092915050565b60006109d8826109df565b9050919050565b600073ffffffffffffffffffffffffffffffffffffffff82169050919050565b6000819050919050565b82818337600083830152505050565b60005b83811015610a36578082015181840152602081019050610a1b565b83811115610a45576000848401525b50505050565b60006002820490506001821680610a6357607f821691505b60208210811415610a7757610a76610b26565b5b50919050565b610a8682610b84565b810181811067ffffffffffffffff82111715610aa557610aa4610b55565b5b80604052505050565b6000610ab9826109ff565b91507fffffffffffffffffffffffffffffffffffffffffffffffffffffffffffffffff821415610aec57610aeb610af7565b5b600182019050919050565b7f4e487b7100000000000000000000000000000000000000000000000000000000600052601160045260246000fd5b7f4e487b7100000000000000000000000000000000000000000000000000000000600052602260045260246000fd5b7f4e487b7100000000000000000000000000000000000000000000000000000000600052604160045260246000fd5b6000601f19601f8301169050919050565b610b9e816109cd565b8114610ba957600080fd5b5056fea2646970667358221220ae7581e8777c2a2cd8d3d247920d1446772a24ca02df074c4d18bfabdf2dffe864736f6c63430008040033",
  "linkReferences": {},
  "deployedLinkReferences": {}
}